:100000000C9434000C9449000C9449000C94490061
:100010000C9449000C9449000C9449000C9449003C
:100020000C9449000C9449000C9449000C9449002C
:100030000C9449000C9449000C9449000C9449001C
:100040000C9449000C9449000C9449000C9449000C
:100050000C9449000C9449000C9449000C944900FC
:100060000C9449000C94490011241FBECFEFD8E036
:10007000DEBFCDBF11E0A0E0B1E0EAE1F1E002C0F7
:1000800005900D92AE30B107D9F70E944B000C9449
:100090008B000C940000CF93DF93CDB7DEB72D9784
:1000A0000FB6F894DEBF0FBECDBF1092C50087E635
:1000B0008093C400E1ECF0E0808188608083E2EC12
:1000C000F0E08081866080838DE0E0E0F1E0DE0199
:1000D000119601900D928A95E1F720E030E008C07A
:1000E0008091C00085FFFCCF9093C6002F5F3F4FEB
:1000F000E1E0F0E0EC0FFD1FE20FF31F90819111A2
:10010000EFCF2FEF83ED90E3215080409040E1F757
:0A01100000C00000E2CFF894FFCF1A
:0E011A0048656C6C6F20776F726C640A000091
:00000001FF
