:100000000C9434000C943E000C943E000C943E0082
:100010000C943E000C943E000C943E000C943E0068
:100020000C943E000C943E000C943E000C943E0058
:100030000C943E000C943E000C943E000C943E0048
:100040000C943E000C943E000C943E000C943E0038
:100050000C943E000C943E000C943E000C943E0028
:100060000C943E000C943E0011241FBECFEFD8E04C
:10007000DEBFCDBF0E9455000C9485000C9400009B
:1000800085B1806285B985B18F7E85B9089585B1C6
:100090008F7D85B985B1806185B9089585B18F7DE2
:1000A00085B985B18F7E85B9089584B1806384B99F
:1000B0000E9440002FEB87E299E021508040904061
:1000C000E1F700C000000E944E002FE38DE093E0B6
:1000D000215080409040E1F700C000000E9447009E
:1000E0002FEB87E299E0215080409040E1F700C07B
:1000F00000000E944E002FE38DE093E021508040ED
:0E0100009040E1F700C00000D3CFF894FFCF8D
:00000001FF
