:100000000C9434000C943E000C943E000C943E0082
:100010000C943E000C943E000C943E000C943E0068
:100020000C943E000C943E000C943E000C943E0058
:100030000C943E000C943E000C943E000C943E0048
:100040000C943E000C943E000C943E000C943E0038
:100050000C943E000C943E000C943E000C943E0028
:100060000C943E000C943E0011241FBECFEFD8E04C
:10007000DEBFCDBF0E9440000C947B000C940000BA
:1000800084B18C6284B984B18F7E84B985B1846077
:1000900085B98AB188608AB981E58CBD2FEF31EED0
:1000A00084E0215030408040E1F700C0000085B17D
:1000B0008B7F85B980ED8EBD0DB407FEFDCF8EB56B
:1000C0001EBC0DB407FEFDCF9EB585B1846085B919
:1000D0002FEF31EE84E0215030408040E1F700C046
:1000E0000000983521F48BB188608BB9FACF8BB1C1
:0A00F000877F8BB9F6CFF894FFCF9D
:00000001FF
