S01E000064635F6D6F746F725F7377697463685F70756C6C75702E73726563BD
S11300000C9434000C943E000C943E000C943E007E
S11300100C943E000C943E000C943E000C943E0064
S11300200C943E000C943E000C943E000C943E0054
S11300300C943E000C943E000C943E000C943E0044
S11300400C943E000C943E000C943E000C943E0034
S11300500C943E000C943E000C943E000C943E0024
S11300600C943E000C943E0011241FBECFEFD8E048
S1130070DEBFCDBF0E9440000C948C000C940000A5
S113008084B1806284B984B1806184B98AB18B7F80
S11300908AB98BB184608BB94A992EC085B18062CC
S11300A085B985B18F7E85B92FEF8BE792E9215011
S11300B080409040E1F700C0000085B18F7D85B994
S11300C085B18F7E85B92FEF83ED90E32150804079
S11300D09040E1F700C0000085B18F7D85B985B1FE
S11300E0806185B92FEF8BE792E9215080409040E1
S11300F0E1F700C00000D0CF85B18F7D85B985B10F
S11301008F7E85B92FEF83ED90E32150804090409E
S10F0110E1F700C00000C0CFF894FFCF5E
S9030000FC
