S012000054696D6572305F4354432E73726563A8
S11300000C9434000C943E000C943E000C943E007E
S11300100C943E000C943E000C943E000C943E0064
S11300200C943E000C943E000C943E000C943E0054
S11300300C943E000C943E000C943E000C943E0044
S11300400C943E000C943E000C943E000C943E0034
S11300500C943E000C943E000C943E000C943E0024
S11300600C943E000C943E0011241FBECFEFD8E048
S1130070DEBFCDBF0E9440000C9459000C940000D8
S113008084B1806284B984B5826084BD88EC87BD04
S113009016BC85B5816085BD85B3826085BB95B18D
S11300A080E2892785B9A99BFECF85B3826085BB91
S10900B0FACFF894FFCF23
S9030000FC
