S01500005350495F4D5354525F434F44452E7372656304
S11300000C9434000C943E000C943E000C943E007E
S11300100C943E000C943E000C943E000C943E0064
S11300200C943E000C943E000C943E000C943E0054
S11300300C943E000C943E000C943E000C943E0044
S11300400C943E000C943E000C943E000C943E0034
S11300500C943E000C943E000C943E000C943E0024
S11300600C943E000C943E0011241FBECFEFD8E048
S1130070DEBFCDBF0E944B000C945A000C940000CC
S113008084B18C6284B981E58CBD08958EBD0DB4B4
S113009007FEFDCF08950E94400085E50E944600BA
S11300A02FEF89E698E1215080409040E1F700C0AD
S10B00B00000F3CFF894FFCF28
S9030000FC
