S0190000656E61626C655F696E74657272757074302E7372656328
S11300000C9434000C9440000C943E000C943E007C
S11300100C943E000C943E000C943E000C943E0064
S11300200C943E000C943E000C943E000C943E0054
S11300300C943E000C943E000C943E000C943E0044
S11300400C943E000C943E000C943E000C943E0034
S11300500C943E000C943E000C943E000C943E0024
S11300600C943E000C943E0011241FBECFEFD8E048
S1130070DEBFCDBF0E945D000C9472000C940000A2
S11300801F920F920FB60F9211242F938F939F9369
S113009095B180E2892785B92FEF87EA91E621504F
S11300A080409040E1F700C000009F918F912F9114
S11300B00F900FBE0F901F9018958AB184708AB963
S11300C084B1806284B984E08BB98DB381608DBBC7
S11300D0E9E6F0E080818260808380818D7F808387
S10B00E07894FFCFF894FFCFE0
S9030000FC
