:100000000C9434000C943E000C943E000C943E0082
:100010000C943E000C943E000C943E000C943E0068
:100020000C943E000C943E000C943E000C943E0058
:100030000C943E000C943E000C943E000C943E0048
:100040000C943E000C943E000C943E000C943E0038
:100050000C943E000C943E000C943E000C943E0028
:100060000C943E000C943E0011241FBECFEFD8E04C
:10007000DEBFCDBF0E9440000C9474000C940000C1
:1000800084B1806284B984B1806184B985B18062B1
:1000900085B985B18F7E85B92FEF8BE792E9215025
:1000A00080409040E1F700C0000085B18F7D85B9A8
:1000B00085B18F7E85B92FEF8BE792E92150804083
:1000C0009040E1F700C0000085B18F7D85B985B112
:1000D000806185B92FEF87EA91E6215080409040FA
:0C00E000E1F700C00000D2CFF894FFCF81
:00000001FF
