S01C000054696D65725F7072657363616C61725F313032342E73726563C5
S11300000C9434000C943E000C943E000C943E007E
S11300100C943E000C943E000C943E000C943E0064
S11300200C943E000C943E000C943E000C943E0054
S11300300C943E000C943E000C943E000C943E0044
S11300400C943E000C943E000C943E000C943E0034
S11300500C943E000C943E000C943E000C943E0024
S11300600C943E000C943E0011241FBECFEFD8E048
S1130070DEBFCDBF0E9454000C9462000C940000BB
S113008020E030E00CC016BC14BC85B5816085BD91
S113009085B3816085BBA89BFECF2F5F3F4F2B3676
S11300A08EEE380780F3089584B1806284B985B1F7
S11300B0806285B90E94400085B1807285B90E9432
S10B00C04000F5CFF894FFCFD6
S9030000FC
